:1000000076EF1CF01200000093EF13F012001200C4
:10001000FFFFFFFFFFFFFFFF39EF14F01200D9CF02
:10002000E6FFE1CFD9FFE652A0940F015F6B626A51
:10003000536B010EE66EE66AE66A540EE66E0F0E2C
:10004000E66E4CEC1CF0006E050EE15E0050160EE4
:10005000616E0F019F0E5B6F7B0E606EDF6ADF507B
:10006000006E016A080E005C000E015810E2DF50BD
:10007000040DF3CFE9FFF4CFEAFF000EE926020EEC
:10008000EA22EE6AEE6AEE6AEE6ADF2AE8D7648C4C
:100090000F015C6B6498649C62A607D062960001B5
:1000A000736B786B796B7A6BF7D70001010E8A6FEF
:1000B0008B6F8C6B8D6B806BDF6A020EDF5C26E2D0
:1000C000EA6ADF34FE0BEA36E96E6B0EE926000EB3
:1000D000EA22EE6AED6AEA6ADF34FE0BEA36E96E7E
:1000E000670EE926000EEA22EE6AED6ADF50EA6A40
:1000F000840FE96E000EEA22EF6ADF50EA6A860F8B
:10010000E96E000EEA22EF6ADF2AD7D70001080E57
:100110006B6F020E6C6F0F01160E536F0201200EF3
:10012000026F020E036F080E016F840E006F000154
:10013000616B606BE552E552E7CFD9FF1200D9CF72
:10014000E6FFE1CFD9FFE6520001605117E106D08A
:10015000646A606A0001606BA194BBD0646A606AE3
:10016000160E616E0F019F0E5B6F7B0E606E64B6A4
:1001700002D06486FCD70001010E606F600508E1C3
:1001800064BA06D0626A606A60806088020E606F3E
:100190006250040B05E06050040B02E06294CDD87D
:1001A00064A202D0A19495D06250010B08E0605087
:1001B000010B05E034DF0001040E606F62906250B5
:1001C000100B05E06050100B02E0A2D8629862AC00
:1001D00019D060AC0FD0010EE66EE66A000EE66E36
:1001E000E66A730EE66EE66AAAEC1AF0006E060E78
:1001F000E15E0050629C0001885101E0880788514F
:1002000001E178DB6250200B04E06050200B01E03C
:1002100065D86250020B14E06050020B11E0010E31
:10022000E66EE66A000EE66EE66AE6687F0EE66E49
:10023000AAEC1AF0006E060EE15E00500F015F6B33
:10024000040E0001E76E6019E8AE02D0E73402D078
:10025000E750605D02E2A1943CD060A639D0DF6A2D
:10026000040EDF5C35E262A630D063CF81F000017E
:100270008151780BE842E842E842826F629681B58C
:1002800008D08251EA6A860FE96E000EEA22EF700A
:1002900007D08251EA6A840FE96E000EEA22EF70FD
:1002A000825102E161D810D0000EE66EE66A810E3E
:1002B000E66E000EE66E720EE66EE66AAAEC1AF0C4
:1002C000006E060EE15E005001D002D0DF2AC8D7D2
:1002D000A194E552E552E7CFD9FF12000F0153A1D7
:1002E00015D063C0E9FF64C0EAFFEF5080080DE15C
:1002F0006BC0E9FF6CC0EAFFEF50840806E163C001
:10030000E9FF64C0EAFF8C0EEF6E5391629A12000F
:100310006084629864820001010E806F000EE66EB8
:10032000E66AE66EE66A750EE66EE66AAAEC1AF012
:10033000006E060EE15E005012000001806B000EA0
:10034000E66EE66AE66EE66A740EE66EE66AAAECA9
:100350001AF0006E060EE15E00506492609462A492
:1003600002D06294FCD71200D9CFE6FFE1CFD9FFCB
:10037000E65200012D0E886FFD0E811553E17E0EB1
:100380008115E8407F0B040DF3CF63F0F4CF64F0E8
:10039000000E6327020E642363C065F064C066F03C
:1003A000657563C0E9FF64C0EAFFEF503C0BE842AB
:1003B000E8420D0835E1DF6A080EDF5C23E263C026
:1003C000E9FF64C0EAFF020EE926000EEA22EE50C1
:1003D000EFCFEAFFE96EEF50E66EDF50EA6A200FDA
:1003E000E96E020EEA22E552E750EF6E63C0E9FFC4
:1003F00064C0EAFF020EE926000EEA22EE2AEF228E
:10040000DF2ADAD763C0E9FF64C0EAFF020EE926FB
:10041000000EEA22200EEE6E020EED6E0DD801D017
:100420003AD805D0FD0E8115040801E15AD8E552ED
:10043000E552E7CFD9FF120000016F6B896B8C6B1F
:100440008D6B836B706B6BC0E9FF6CC0EAFFEF9E36
:100450006B756BC0E9FF6CC0EAFFEF9E6B7565C002
:10046000E9FF66C0EAFFEF9E736B746B756B786B88
:10047000796B7A6B93D8000EE66EE66AE66EE66AF2
:10048000030EE66EE66AAAEC1AF0006E060EE15E56
:100490000050D3EF0FF0020E0001705D03E196EC07
:1004A00010F01ED0706B83511AE165C0E9FF66C081
:1004B000EAFFEE52080EEF6E65C0E9FF66C0EAFF84
:1004C000020EE926000EEA22200EEE6E020EED6EFE
:1004D00065C0E9FF66C0EAFF8C0EEF6E01D0836B4A
:1004E0001200D9CFE6FFE1CFD9FFE6526BC0E9FF9A
:1004F0006CC0EAFFEF50400B01E0010EDF6E00011F
:100500006B75080E605D0CE122C25CFF0F015C514F
:1005100004E00001100E606F03D00001040E606F54
:10052000700528E16BC0E9FF6CC0EAFF020EE92606
:10053000000EEA22280EEE6E020EED6E95DB020E24
:1005400000016F5D07E16BC0E9FF6CC0EAFF840E3C
:10055000EF6E0FD0DF5007E16BC0E9FF6CC0EAFF20
:10056000C80EEF6E06D06BC0E9FF6CC0EAFF880EC4
:10057000EF6E0FD078AF0CD07B517C1107E005D027
:100580007CC0FAFF00017B51F96EFADF0001789F11
:10059000706BE552E552E7CFD9FF120002012051FE
:1005A000600BE842E842E842E842E842000901E024
:1005B00059D021510C0A55E00B0A44E00C0A36E0F0
:1005C000010A27E00B0A23E0020A21E0030A1DE0EA
:1005D000080A11E0010A0CE00F0A08E0030A01E032
:1005E00040D00001738F080E606F3CD014DA3AD00F
:1005F00036EC11F037D00001610E716F000E726F92
:100600007381010E746F738F2DD065DA2BD02BD8C8
:1006100029D024510001716F726B620E7127000E98
:1006200072237381010E746F738F1CD00001738F5E
:1006300002012451EA6A620FE96E000EEA2222C228
:10064000EFFF10D0000EE66EE66AE66EE66A020E76
:10065000E66EE66AAAEC1AF0006E060EE15E005045
:1006600001D000D01200D9CFE6FFE1CFD9FF050EAF
:10067000E1260201220510E120511F0B00090CE1C7
:100680000001738F030E0201215D04E10001010EE0
:100690007F6F02D000017F6B0201225101E020D167
:1006A00020511F0B020801E01BD124510F0B000940
:1006B00001E116D124510F0B010801E211D1200EE6
:1006C0000001605D01E00CD1738F020124BF1AD0DC
:1006D00024510F0BE96EEA6AD890E936EA36670EC4
:1006E000E926000EEA22EECFDEFFEDCFDDFF24513A
:1006F0000F0BEA6A860FE96E000EEA22020EEFCFB8
:10070000DBFF19D024510F0BE96EEA6AD890E93665
:10071000EA366B0EE926000EEA22EECFDEFFEDCFC1
:10072000DDFF24510F0BEA6A840FE96E000EEA2206
:10073000020EEFCFDBFFD950020FE96EDACFEAFFEE
:10074000EF50010B03E1000EDF9401D0DF8424BFE2
:1007500010D024510F0BE96EEA6AD890E936EA36D8
:10076000670EE926000EEA22DECFEEFFDDCFEDFFB9
:100770000FD024510F0BE96EEA6AD890E936EA36B9
:100780006B0EE926000EEA22DECFEEFFDDCFEDFF95
:10079000030E215D23E1DECFE9FFDDCFEAFFEF505D
:1007A000800B13E024BF09D024510F0BEA6A860F97
:1007B000E96E000EEA22EF8208D024510F0BEA6A9C
:1007C000840FE96E000EEA22EF82840E006EDECF07
:1007D000E9FFDDCFEAFF0050EF1282D0DF74DECFF9
:1007E000E9FFDDCFEAFFEF50800B1BE0DECFE9FF32
:1007F000DDCFEAFFEF9EDECFE9FFDDCFEAFFEF8C32
:10080000020EE66EE66ADECFE6FFDDCFE6FF050EFE
:10081000E66EE66AAAEC1AF0006E060EE15E005083
:1008200005D0DECFE9FFDDCFEAFFEF8CDF74D950D2
:10083000020FE96EDACFEAFFEF50020B07E1DECFDD
:10084000E9FFDDCFEAFFEF50800B2DE0020124BF6E
:1008500009D024510F0BEA6A860FE96E000EEA22D6
:10086000EF9208D024510F0BEA6A840FE96E000E54
:10087000EA22EF923B0E006EDECFE9FFDDCFEAFF0A
:100880000050EF16020EE66EE66ADECFE6FFDDCF21
:10089000E6FF050EE66EE66AAAEC1AF0006E060E9A
:1008A000E15E005008D03B0E006EDECFE9FFDDCFE9
:1008B000EAFF0050EF16020124510F0B016A530F9B
:1008C000006E0F0E0122030E00C0DBFF040E01C0FC
:1008D000DBFF030EDBCFE9FF040EDBCFEAFFEF9077
:1008E000050EE15C02E2E16AE552E16EE552E7CF16
:1008F000D9FF120000018A514DE1010E8A6F8B5120
:1009000049E1010E8B6F020E705D0DE16BC0E9FFD6
:100910006CC0EAFFEE52EF6A6BC0E9FF6CC0EAFF01
:10092000C80EEF6E37D0700535E1836B63C0E9FF09
:1009300064C0EAFFEE52080EEF6E63C0E9FF64C0C8
:10094000EAFF020EE926000EEA22200EEE6E020EEB
:10095000ED6E63C0E9FF64C0EAFF840EEF6E010E26
:10096000836F65C0E9FF66C0EAFFEE52080EEF6EC6
:1009700065C0E9FF66C0EAFF020EE926000EEA2222
:10098000200EEE6E020EED6E65C0E9FF66C0EAFF56
:10099000800EEF6E120000018C6B8D6B020E705D8D
:1009A0001AE165C0E9FF66C0EAFFEE52080EEF6E7D
:1009B00065C0E9FF66C0EAFF020EE926000EEA22E2
:1009C000280EEE6E020EED6E65C0E9FF66C0EAFF0E
:1009D000C80EEF6E1FD074510201265D00017551E3
:1009E0000201275904E226C274F027C275F03CD9EF
:1009F0006BC0E9FF6CC0EAFF020EE926000EEA2296
:100A0000280EEE6E020EED6E6BC0E9FF6CC0EAFFC1
:100A1000C80EEF6E1200800E0201205D5BE1000146
:100A2000C00E736F02012351030A34E0010A0EE085
:100A3000030A03E00001736B4DD00001920E716F49
:100A4000350E726F120E746F756B44D02251F66EB4
:100A5000F76AD890F636F736390EF626360EF722B4
:100A60000900F5CF71F00A00F5CF72F0020E000117
:100A7000F76A7125F66E7251F7220800F5CF74F00F
:100A8000030EF76A7125F66E7251F7220800F5CF52
:100A900075F020D0040E225D1AE22251F66EF76A3C
:100AA000D890F636F7363B0EF626360EF7220900BA
:100AB000F5CF71F00A00F5CF72F071C0F6FF72C089
:100AC000F7FF0800F5500001746F756B02D000014C
:100AD000736B00D01200D9CFE6FFE1CFD9FF020E31
:100AE000E1260201286B296B20511F0B020A12E03C
:100AF000030A0DE0010A01E042D00001738F0201F8
:100B0000288100017F0502E10201288338D000011D
:100B1000738F35D00001738F020124BF10D0245190
:100B20000F0BE96EEA6AD890E936EA36670EE926D5
:100B3000000EEA22EECFDEFFEDCFDDFF0FD0245115
:100B40000F0BE96EEA6AD890E936EA366B0EE926B1
:100B5000000EEA22EECFDEFFEDCFDDFFDECFE9FFB4
:100B6000DDCFEAFFEF50800B09E0DECFE9FFDDCFFC
:100B7000EAFFEF50040B02E0010E286F00D00001E5
:100B800073AF07D0280E716F020E726F7381020E61
:100B9000746F020EE15C02E2E16AE552E16EE55239
:100BA000E7CFD9FF12006498000173BF2BD078AF54
:100BB00009D0020E706F8D5101E1EDDE00018B6BEB
:100BC0008A6B1FD065C0E9FF66C0EAFFEE52080ECF
:100BD000EF6E65C0E9FF66C0EAFF020EE926000E6F
:100BE000EA22200EEE6E020EED6E65C0E9FF66C0D1
:100BF000EAFF8C0EEF6E6BC0E9FF6CC0EAFF840E5B
:100C0000EF6E31D0020120AF0DD00001010E706FE8
:100C10008C5101E1C0DE00018B6B8A6B895101E1CF
:100C200069DE21D00001020E706F65C0E9FF66C069
:100C3000EAFFEE52080EEF6E65C0E9FF66C0EAFFFC
:100C4000020EE926000EEA22200EEE6E020EED6E76
:100C500065C0E9FF66C0EAFF840EEF6E8B6B8A6B9E
:100C6000895101E147DE1200D9CFE6FFE1CFD9FF7C
:100C7000E652080EDF6E0001745D000E75590BE23E
:100C800074C0DFFF6F5103E1010E6F6F04D06F0579
:100C900002E1020E6F6FDF50006E016A0050745D5A
:100CA000746F01507559756F6BC0E9FF6CC0EAFF36
:100CB000EE52DFCFEFFF280E7D6F020E7E6F73B115
:100CC00019D0DF5016E071C0F6FF72C0F7FF712B2C
:100CD000000E72230800F550E66E7DC0E9FF7EC06D
:100CE000EAFF7D2B000E7E23E552E750EF6EDF0614
:100CF000E8D717D0DF5015E071C0E9FF72C0EAFFF6
:100D0000712B000E7223EF50E66E7DC0E9FF7EC0AE
:100D1000EAFF7D2B000E7E23E552E750EF6EDF06E3
:100D2000E9D7E552E552E7CFD9FF1200D9CFE6FF68
:100D3000E1CFD9FF020EE12663C0E9FF64C0EAFFFC
:100D4000EE52EFCFDFFFDFCF00F000500001795D02
:100D5000000E7A5902E279C0DFFFDF50006E016AAF
:100D60000050795D796F01507A597A6F010EDB6A14
:100D7000DF50F36E010EDBCFF4FFF350F45C16E2AC
:100D8000010EDB50EA6A280FE96E020EEA22EF50EC
:100D9000E66E76C0E9FF77C0EAFF762B000E772378
:100DA000E552E750EF6E010EDB2AE2D7000ED88045
:100DB0007955000E7A5528E265C0E9FF66C0EAFF62
:100DC000EE52080EEF6E65C0E9FF66C0EAFF020E44
:100DD000E926000EEA22280EEE6E020EED6E63C0CA
:100DE000E9FF64C0EAFFEF50400B07E165C0E9FF8F
:100DF00066C0EAFFC80EEF6E06D065C0E9FF66C0A8
:100E0000EAFF880EEF6E28D065C0E9FF66C0EAFFF2
:100E1000EE52080EEF6E65C0E9FF66C0EAFF020EF3
:100E2000E926000EEA22200EEE6E020EED6E65C07F
:100E3000E9FF66C0EAFF840EEF6E7B517C1107E08C
:100E400005D07CC0FAFF00017B51F96EFADF00018A
:100E5000789F895101E14EDD020EE15C02E2E16A18
:100E6000E552E16EE552E7CFD9FF1200D9CFE6FF98
:100E7000E1CFD9FFE6520001738F010EE66EE66AFC
:100E8000E66A540EE66E0F0EE66E4CEC1CF0006E39
:100E9000050EE15E0050DF6ADF50006E016A080E49
:100EA000005C000E015810E2DF50040DF3CFE9FFA3
:100EB000F4CFEAFF000EE926020EEA22EE6AEE6A9D
:100EC000EE6AEE6ADF2AE8D7648CDF6A020EDF5C26
:100ED00010E2DF50EA6A840FE96E000EEA22EF6A40
:100EE000DF50EA6A860FE96E000EEA22EF6ADF2A17
:100EF000EDD7010EE66EE66AE66A620EE66E000E59
:100F0000E66E4CEC1CF0006E050EE15E0050649C39
:100F10000001080E6B6F020E6C6F000E636F020E05
:100F2000646F63C065F064C066F022C261F0615115
:100F300003E1100E606F13D0010EE66EE66A610EDB
:100F4000E66E000EE66E010EE66EE66AAAEC1AF098
:100F5000006E060EE15E00500001200E606FE5524B
:100F6000E552E7CFD9FF1200D9CFE6FFE1CFD9FF95
:100F7000020EE126000EDE6E020EDD6EFD0EDB506F
:100F8000E824026EFE0EDB50040DF3500224040D23
:100F9000F3CF00F0F4CF01F0D9CFE9FFDACFEAFFC9
:100FA0000050EE260150ED22DECFE9FFDDCFEAFF53
:100FB000EF9EFD0EDB500FE1FE0EEA6ADB34FE0B06
:100FC000EA36E96E670EE926000EEA22DECFEEFF72
:100FD000DDCFEDFF0ED0FE0EEA6ADB34FE0BEA3603
:100FE000E96E6B0EE926000EEA22DECFEEFFDDCFC2
:100FF000EDFFDECFE9FFDDCFEAFFEF9CDECFE9FFBB
:10100000DDCFEAFF040EE926000EEA22EF8C020E85
:10101000E15C02E2E16AE552E16EE552E7CFD9FF19
:101020001200D9CFE6FFE1CFD9FF020EE126FD0E77
:10103000DBA407D0E66AFE0EDBCFE6FF95DFE552C4
:10104000E552FD0EDBA208D0010EE66EFE0EDBCFF0
:10105000E6FF8ADFE552E552FE0EDB50016A530FD0
:10106000006E0F0E012200C0DEFF01C0DDFFDECFEB
:10107000E9FFDDCFEAFFFD0EDBCFEFFF020EE15C03
:1010800002E2E16AE552E16EE552E7CFD9FF1200D4
:10109000D9CFE6FFE1CFD9FF020EE126FE0EDB50ED
:1010A00020E165C0E9FF66C0EAFFEE52080EEF6E70
:1010B00065C0E9FF66C0EAFF020EE926000EEA22DB
:1010C000200EEE6E020EED6E65C0E9FF66C0EAFF0F
:1010D0008C0EEF6E6BC0E9FF6CC0EAFF840EEF6E02
:1010E0003DD0FD0EDB50E824026EFE0EDB50040DF9
:1010F000F3500224040DF3CF00F0F4CF01F0000E02
:101100000026020E012200C0DEFF01C0DDFF840EBA
:10111000006EDECFE9FFDDCFEAFF0050EF12FD0EDB
:10112000DB50E824026EFE0EDB50040DF350022467
:10113000010F040DF3CF00F0F4CF01F0000E0026F4
:10114000020E012200C0DEFF01C0DDFF840E006E32
:10115000DECFE9FFDDCFEAFF0050EF12020EE15CC7
:1011600002E2E16AE552E16EE552E7CFD9FF1200F3
:10117000D9CFE6FFE1CFD9FF020EE126FD0EDB500D
:101180000FE0FE0EEA6ADB34FE0BEA36E96E6B0E08
:10119000E926000EEA22EECFDEFFEDCFDDFF0ED016
:1011A000FE0EEA6ADB34FE0BEA36E96E670EE926CC
:1011B000000EEA22EECFDEFFEDCFDDFFD9CFE9FF53
:1011C000DACFEAFFEE50ED1003E1F36AF46A49D09A
:1011D000DECFE9FFDDCFEAFF020EE926000EEA22AC
:1011E000FB0EDBCFEEFFFC0EDBCFEDFFDECFE9FF2A
:1011F000DDCFEAFFEE52FA0EDBCFEFFF400E006EBE
:10120000DECFE9FFDDCFEAFF0050EF16880E006E5B
:10121000DECFE9FFDDCFEAFF0050EF12FD0EDB501D
:101220000CE0FE0EEA6ADB34FE0BEA36E96E6B0E6A
:10123000E926000EEA22EF740BD0FE0EEA6ADB34D8
:10124000FE0BEA36E96E670EE926000EEA22EF741D
:10125000DECF00F0DDCF01F000C0F3FF01C0F4FFEE
:1012600000D0020EE15C02E2E16AE552E16EE55275
:10127000E7CFD9FF1200D9CFE6FFE1CFD9FF64A8AD
:101280004ED0FE0EEA6ADB34FE0BEA36E96E6B0ED8
:10129000E926000EEA22EE50EFCFEAFFE96E400E9B
:1012A000EE16EE6AEE6AEE6AFE0EEA6ADB34FE0BBA
:1012B000EA36E96E6B0EE926000EEA22EE50EFCF19
:1012C000EAFFE96EEE7CFE0EEA6ADB34FE0BEA36DC
:1012D000E96E6B0EE926000EEA22EF74400E006EF6
:1012E000FE0EEA6ADB34FE0BEA36E96E6B0EE92687
:1012F000000EEA22EE50EFCFEAFFE96E0050EF1643
:10130000FE0EEA6ADB34FE0BEA36E96E6B0EE92666
:10131000000EEA22EE50EFCFEAFFE96EEF7CE552D5
:10132000E7CFD9FF1200DACFE4FFE2CFDAFFE9CF4F
:10133000E4FFEACFE4FFF6CFE4FFF7CFE4FFF5CF19
:10134000E4FFF3CFE4FFF4CFE4FFFACFE4FF00EED5
:1013500016F0140EE80403E3EECFE4FFFBD700EE33
:1013600000F0160EE80403E3EECFE4FFFBD7E652ED
:10137000060E8214E8407F0B0101DF6F8250020BE2
:1013800001E0010EE86F8250040B01E0010EE96FED
:10139000F0B026D8F0B248D8E55200EE15F0160E9F
:1013A000E80403E3E5CFEDFFFBD700EE29F0140ED0
:1013B000E80403E3E5CFEDFFFBD7E5CFFAFFE5CF88
:1013C000F4FFE5CFF3FFE5CFF5FFE5CFF7FFE5CF7E
:1013D000F6FFE5CFEAFFE5CFE9FFE5CFDAFF110041
:1013E000F096F0989D90F1BA0CD00101ED0501E066
:1013F000F18AE90503E1010EEA6F02D0020EEA6FFD
:1014000009D0F19A0101E95103E1010EEA6F02D01E
:10141000020EEA6FD72B000ED823D92BDA23F090D7
:10142000F086F0889D801200F096F0989D90F1B8BB
:101430000AD0F1880101E85103E1010EEA6F02D000
:10144000020EEA6F09D0F1980101E80503E1010EEF
:10145000EA6F02D0020EEA6F030EED5D05E1D72BB5
:10146000000ED823D92BDA23F092F086F0889D80E5
:101470001200D8CFE4FFE0CFE4FFE46EDACFE4FF60
:10148000E2CFDAFFE6529EA01ED0F096F0989D9033
:101490000101EB2B000EEC23D880EB55000EEC5530
:1014A0000AE2E52BE62BE72BD751D81104E0010E19
:1014B000E46FEB6BEC6B150ECF6EA00ECE6EF0866C
:1014C000F0889E909D80E552E5CFDAFFE550E5CFAC
:1014D000E0FFE5CFD8FF100003D868D8FED7120090
:1014E0000F0EC11202D80FEF0AF00101536B546BBB
:1014F000556B566BD76BD86BDB6BDC6BDD6BDE6BC8
:10150000D96BDA6BDF6B070EE06FE16FE269E369BD
:10151000E46BE56BE76BE66BEB6BEC6B010EE86F76
:10152000E96FEA6F030EED6FEE6BF06BF16BEF6B33
:10153000F26BF36BF46B200EE66EE66AE66AB00EB1
:10154000E66E020EE66E4CEC1CF0006E050EE15EDF
:101550000050200EE66EE66AE66AD00EE66E020ED7
:10156000E66E4CEC1CF0006E050EE15E0050B9EF2B
:1015700014F0D80EF06EF16AC60E946E7E6A7F6A21
:10158000700E786E936EC80ED56E9E6A010E9D6EBB
:101590009F6AD90ECD6E150ECF6EA00ECE6E800E48
:1015A000D06EC00EF26E390E8B6E12009FEC0AF0F8
:1015B000200E0001E76E6019E8AE02D0E73402D0D9
:1015C000E750605D03E36450020B01E034D0010E8C
:1015D0000101E75D01E316DA2FD8010E0101E65D96
:1015E0002AE39FEC0AF001015551561102E1000E69
:1015F00008D055C1E9FF56C1EAFFEF50800B01E06A
:10160000010E000918E1400EE66ED00EE66E020EE5
:10161000E66EE66A010EE66EB8EC12F0006E050E9C
:10162000E15E0050F3CF55F1F4CF56F10101E66BC6
:101630009FEC0AF0F7D91200D9CFE6FFE1CFD9FF2E
:10164000E652010E0101E75D04E3E76BB3D8010147
:10165000DE6F5351541102E1000E08D053C1E9FF6F
:1016600054C1EAFFEF50800B01E0010EDF6EDF5046
:101670000DE111D80101E051E11902E077D906D05E
:10168000E40504E1DEC1E6FF90D9E552E552E552FA
:10169000E7CFD9FF1200D9CFE6FFE1CFD9FF080E7F
:1016A000E126010EF36E020EF3CFDBFFF36E030EA5
:1016B000F3CFDBFF040EF36EF3CFDBFF060EF36E0A
:1016C000050EF3CFDBFFF36E060EF3CFDBFF030E49
:1016D000F36E070EF3CFDBFF010E0101E55D60E362
:1016E000E56B700E8114E8380F0BE76E010EE7CF43
:1016F000DBFFDF6A030EDF5C53E2010EDBCFE6FFA8
:10170000D950020F006EDACF01F0DF500F01002434
:10171000E96E000E0120EA6EEF50E552E71429E071
:10172000DF50EA6AF20FE96E010EEA22EFCF00F015
:10173000030E005C08E2DF50EA6AF20FE96E010E68
:10174000EA22EF2A15D0D950020F006EDACF01F04D
:10175000DF500024E96E000E0120EA6EEF50010117
:10176000E013DF50EA6AF20FE96E010EEA22EF6A37
:1017700015D0D950050F006EDACF01F0DF500024EC
:10178000E96E000E0120EA6EEF500101E017DF5014
:10179000EA6AF20FE96E010EEA22EF6ADF2AAAD79F
:1017A000080EE15C02E2E16AE552E16EE552E7CF44
:1017B000D9FF1200D9CFE6FFE1CFD9FF060EE1260F
:1017C000DE6ADD6A020EDB6A030EDB6A040EDB6A88
:1017D000050EDB6A2D0EF36E050EF3CFDBFFDBC1CA
:1017E0000EF0DCC10FF0FF0ED8800E560F56106AB7
:1017F000116A050EDB500C6E0D6AD9C11EF0DAC1FC
:101800001FF00CC023F00DC024F02EEC1CF01CC007
:1018100008F01DC009F00A6A0B6A08C01CF009C074
:101820001DF00AC01EF00BC01FF00EC021F00FC04B
:1018300022F010C023F011C024F0F6EC1BF018C009
:1018400004F019C005F01AC006F01BC007F0100E16
:10185000D8900732063205320432E806F9E1010178
:10186000DB510424026EDC510520036EDBC112F053
:10187000DCC113F0146A156A580E216E020E226E36
:10188000236A246A12C01CF013C01DF014C01EF09D
:1018900015C01FF0F6EC1BF018C012F019C013F0C1
:1018A0001AC014F01BC015F0100ED8901532143267
:1018B00013321232E806F9E11250025C006E135046
:1018C0000358016E00C0DEFF01C0DDFFDECFDBF19B
:1018D000DDCFDCF10101D96BDA6BDECF00F0DDCFBB
:1018E00001F001C000F0016A020E00C0DBFFDB5016
:1018F000DD5DE76E030EE7CFDBFFDBCF00F00034EA
:1019000006E3030EDBCFE7FFE76CE7CFDBFF030E59
:10191000F36EDBCFF4FFF350F45C03E3020EDBCF96
:10192000DDF1040EDB6A860EF36E020EDBCFF4FFF0
:10193000F350F45C0CE3040EDB2AAA0EF36E020EE5
:10194000DBCFF4FFF350F45C02E3040EDB2A040E59
:10195000DB50006E060EE15C03E200D0E16AE55266
:10196000E16E0050E552E7CFD9FF12000201010EEF
:10197000B06FE0C1B5F2B16BB26BB36BB46BE0C1E9
:10198000E1F1200EE66EB00EE66E020EE66E010E7E
:10199000E66EE66EB8EC12F0006E050EE15E0050E9
:1019A000F3CF53F1F4CF54F11200D9CFE6FFE1CFDA
:1019B000D9FF0201010EB06FD7C1B1F2D8C1B2F2A6
:1019C000EAC1B3F2FE0EDBCFB4F2E0C1B5F2200EF5
:1019D000E66EB00EE66E020EE66E010EE66EE66E86
:1019E000B8EC12F0006E050EE15E0050F3CF53F13B
:1019F000F4CF54F10101D76BD86BE46BE552E7CF1C
:101A0000D9FF12000101EE510CE0F02B000EF12382
:101A10000A0EF05D000EF15904E3F06BF16BEE6B12
:101A200074DB1200D9CFE6FFE1CFD9FFE652010106
:101A30005351541102E1000E08D053C1E9FF54C1C3
:101A4000EAFFEF50800B01E0010EDF6E0201D05182
:101A5000090A25E00E0A1FE0010A19E0030A13E053
:101A6000010A0DE0060A07E0030A03E0DF501DE16A
:101A70001AD021D81BD0DF5001E14AD817D0DF504F
:101A800001E185D813D0DF5001E1F2D80FD0DF504B
:101A900001E10AD90BD0DF5001E120D907D0DF5096
:101AA00001E139D903D00101EF6B00D0E552E552D5
:101AB000E7CFD9FF1200D1C2E2F10101E2BF26D087
:101AC000E251E31921E0080EE215E840E840E84061
:101AD0001F0BE8B08B80E8A08B90010EE215E8B0F8
:101AE0008B86E8A08B96020EE215E8407F0BE8B0EB
:101AF0008B88E8A08B98040EE215E840E8403F0B85
:101B0000E8B08B8AE8A08B9AE2C1E3F1EF6B120098
:101B1000D9CFE6FFE1CFD9FFE6520201020EB06F46
:101B2000DF6ADF50006E016A080E005C000E01588B
:101B300014E2DF50F76A190FF66E360EF72208002E
:101B4000F550E66EDF28EA6AB00FE96E020EEA226F
:101B5000E552E750EF6EDF2AE4D7200EE66EB00EB6
:101B6000E66E020EE66E010EE66EE66EB8EC12F060
:101B7000006E050EE15E0050F3CF53F1F4CF54F147
:101B80000101EF6BE552E552E7CFD9FF1200D9CF43
:101B9000E6FFE1CFD9FF020EE126010EDB6A01016B
:101BA000C00E506F3F0E516F526B400EE66E570ED7
:101BB000E66E010EE66E50C1E6FF51C1E6FF52C16E
:101BC000E6FF2FDA006E060EE15E0050DF6A1F0EA0
:101BD000DF5C2CE2DF50E824020FE76E010EE7CF56
:101BE000DBFFDB50EA6A570FE96E010EEA22EF5085
:101BF000FF0808E1DF50EA6AB10FE96E020EEA223F
:101C0000EF6A12D0010EDB50EA6A570FE96E010E3F
:101C1000EA22EF50E66EDF50EA6AB10FE96E020E7B
:101C2000EA22E552E750EF6EDF2AD1D70201040E17
:101C3000B06F200EE66EB00EE66E020EE66E010E7E
:101C4000E66EE66EB8EC12F0006E050EE15E005036
:101C5000F3CF53F1F4CF54F10101EF6B020EE15CCD
:101C600002E2E16AE552E16EE552E7CFD9FF1200E8
:101C700095D80201050EB06F010EB16F200EE66E11
:101C8000B00EE66E020EE66E010EE66EE66EB8EC83
:101C900012F0006E050EE15E0050F3CF53F1F4CF69
:101CA00054F10101EF6B12000201060EB06FB16B2F
:101CB000200EE66EB00EE66E020EE66E010EE66EC9
:101CC000E66EB8EC12F0006E050EE15E0050F3CF48
:101CD00053F1F4CF54F10101EF6B12000201070E32
:101CE000B06F010EB16F200EE66EB00EE66E020E02
:101CF000E66E010EE66EE66EB8EC12F0006E050EB2
:101D0000E15E0050F3CF53F1F4CF54F10101010E25
:101D1000EE6FEF6B1200D9CFE6FFE1CFD9FFE652AD
:101D2000D1C2E6FF8FD8E5520201090EB06FB16B48
:101D3000DF6A080EDF5C18E2B15114E1DF50F76A88
:101D4000310FF66E360EF7220800F5CF00F0DF50A7
:101D5000EA6AD20FE96E020EEA22EF50005C02E05E
:101D6000010EB16FDF2AE5D7200EE66EB00EE66EEB
:101D7000020EE66E010EE66EE66EB8EC12F0006E34
:101D8000050EE15E0050F3CF53F1F4CF54F10101A1
:101D9000EF6BE552E552E7CFD9FF1200D9CFE6FF4E
:101DA000E1CFD9FF020EE126010EDB6A0101C00E70
:101DB000506F3F0E516F526B400E576F030E586FAE
:101DC000DF6A1F0EDF5C23E2DF50E824020FE76EBC
:101DD000010EE7CFDBFFDF50EA6AD10FE96E020E9A
:101DE000EA22EF50E66E010EDB50EA6A570FE96E09
:101DF000010EEA22E552E750EF6E010EDB28EA6A97
:101E0000570FE96E010EEA22EF6ADF2ADAD7400E99
:101E1000E66E570EE66E010EE66E50C1E6FF51C14A
:101E2000E6FF52C1E6FF63D8006E060EE15E005089
:101E3000020EE15C02E2E16AE552E16EE552E7CFB3
:101E4000D9FF1200D9CFE6FFE1CFD9FFE652010159
:101E5000800E506F3F0E516F526B400EE66E570E64
:101E6000E66E010EE66E50C1E6FF51C1E6FF52C1BB
:101E7000E6FFD7D8006E060EE15E0050DF6A100E56
:101E8000DF5C1FE2FE0EDB5013E0DF50F76A210F2C
:101E9000F66E360EF7220800F550E66EDF50EA6A5D
:101EA000570FE96E010EEA22E552E750EF6E07D0B8
:101EB000DF50EA6A570FE96E010EEA22EF68DF2A67
:101EC000DED7400EE66E570EE66E010EE66E50C18E
:101ED000E6FF51C1E6FF52C1E6FF09D8006E060ECB
:101EE000E15E0050E552E552E7CFD9FF1200D9CFAD
:101EF000E6FFE1CFD9FF040EE126030EDB6AF90EFF
:101F0000DB50C00BE846E846E76E020EE7CFDBFF8A
:101F1000DB5027E0DF6A020EDB50DF5C21E2400E7F
:101F2000DF02F3CF03F0046A056AD950FC0FE96EB3
:101F3000FF0EDA20EA6EEE500324006EEE5004200D
:101F4000016EEE500520026E00C0E6FF01C0E6FF04
:101F500002C0E6FFBBD8E552E552E552DF2ADBD7E7
:101F60000DD0FC0EDBCFE6FFFD0EDBCFE6FFFE0E55
:101F7000DBCFE6FFABD8E552E552E552F90EDB5078
:101F8000F00BE83AE76E010EE7CFDBFFDF6A010EE8
:101F9000DB50DF5C3CE2030EDB50E76EFA0EDBCF7A
:101FA00000F0FB0EDBCF01F0E7500026000E01220F
:101FB00000C0E6FF01C0E6FF030EDBCF05F0066AB6
:101FC000076AD950FC0FE96EFF0EDA20EA6EEE5078
:101FD0000524026EEE500620036EEE500720046EBC
:101FE00002C0E6FF03C0E6FF04C0E6FF43D8086E68
:101FF000050EE15E0850100E006E030EDBCFE7FF0A
:102000000050E726030EE7CFDBFFDF2AC0D7040E20
:10201000E15C02E2E16AE552E16EE552E7CFD9FF09
:102020001200D9CFE6FFE1CFD9FFE652FC0EDBCF9D
:10203000F6FFFD0EDBCFF7FFFE0EDBCFF8FFDF6A0A
:10204000F90EDB50DF5C11E20900DF50E76EFA0E9B
:10205000DBCFE9FFFB0EDBCFEAFFE750E926000EFE
:10206000EA22F5CFEFFFDF2AEBD7E552E552E7CFC3
:10207000D9FF1200D9CFE6FFE1CFD9FFE652FC0E1F
:10208000DBCFF6FFFD0EDBCFF7FFFE0EDBCFF8FF59
:10209000DF6A100EDF5C11E2DF50E76EFA0EDBCF75
:1020A000E9FFFB0EDBCFEAFFE750E926000EEA224C
:1020B000EF50F56E0D00DF2AECD70A00A40EA66ED5
:1020C00019D8E552E552E7CFD9FF1200D9CFE6FF84
:1020D000E1CFD9FFFC0EDBCFF6FFFD0EDBCFF7FF24
:1020E000FE0EDBCFF8FF940EA66E04D8E552E7CFC4
:1020F000D9FF1200F29E550EA76EAA0EA76EA682F9
:10210000A6B2FED7A694F28E1200D9CFE6FFE1CF99
:10211000D9FFE6526492646ADF6AFF0EDF5C09E26F
:10212000E868E85004E0E80600D000D0FAD7DF2ADB
:10213000F4D7FF00E552E552E7CFD9FF120038EFA0
:102140001BF01E0EE66E010EE66E11EC12F0E5526B
:10215000E5521200D9CFE6FFE1CFD9FFFD0EDBCF6C
:102160001EF0FE0EDBCF1FF0030E1E1801E11F5004
:1021700008E0010E1E1801E11F5001E004D0E1DF6C
:1021800002D0DDDF00D0010E00D0E552E7CFD9FF4D
:1021900012001201000200000008260C1E000100BF
:1021A0000102030109022900010100C032090400F3
:1021B000000203010002092111010001222D000784
:1021C00005810340000107050103400001040309E4
:1021D000041403490063006F006D00200049006E85
:1021E0000063002E003403490063006F006D00207F
:1021F00000520043002D00320038002000520045FC
:10220000004D004F0054004500200045004E0043A3
:10221000004F00440045005200313032203332314B
:102220003049434F4D49434F4D49434F4D49434F2B
:102230004D5958333435302020A435CD35D135E5CE
:1022400035C03F05060904A101150026FF007508E9
:1022500095201901294081020600FF0901A10115FD
:102260000026FF0075089520190129409102C0C081
:10227000020120511F0B010801E068D0245101E048
:1022800065D0060E215D25E12351230A21E0010AD4
:1022900011E0030A01E01DD0000161050AE100011F
:1022A000B60E716F350E726F090E746F756BC00EBE
:1022B000736F0FD0000161050AE10001430E716FD9
:1022C000360E726F2D0E746F756BC00E736F01D06A
:1022D00000D002012051600BE842E842E842E842A7
:1022E000E842010801E032D021510B0A29E0080A36
:1022F0001CE0090A14E0080A07E00B0A04E0080AD7
:1023000001E024D023D022D000018E0E716F000E88
:10231000726F010E746F756BC10E736F17D0000171
:10232000800E736F23C28EF011D000018F0E716F7B
:10233000000E726F010E746F756B810E736F06D095
:102340000001800E736F22C28FF000D01200060EC3
:10235000F66E140EF76E000EF86E01010900F550CE
:10236000FA6F0900F550FB6F03E1FA6701D03DD029
:102370000900F550F56F0900F550F66F0900F550AA
:10238000F76F09000900F550E96E0900F550EA6E93
:10239000090009000900F550F86F0900F550F96FC0
:1023A00009000900F6CFFCF1F7CFFDF1F8CFFEF1FF
:1023B000F5C1F6FFF6C1F7FFF7C1F8FF0101F853C9
:1023C00002E1F95307E00900F550EE6EF807F8E274
:1023D000F907F9D7FCC1F6FFFDC1F7FFFEC1F8FF11
:1023E0000101FA07000EFB5BBFD712001C5021024F
:1023F000F3CF18F0F4CF19F02202F3501926000E93
:10240000F4201A6E1C502302F3501A26000EF420FA
:102410001B6E1C502402F3501B261D502102F3504A
:102420001926F4501A22000E1B221D502202F350CE
:102430001A26F4501B221D502302F3501B261E5057
:102440002102F3501A26F4501B221E502202F35090
:102450001B261F502102F3501B2612001EC028F01D
:102460001E502302F4CF1DF0F3CF1CF01F502402A6
:10247000F4CF1FF0F3CF1EF02302F3501D26F450CB
:102480001E22E86A1F2228502402F3501D26F45011
:102490001E22E86A1F22000CFE0EE3CFE9FFFF0EAA
:1024A000E3CFEAFFE9CFF3FFEACFF4FFFB0EE350FF
:1024B00003E1FC0EE35009E0FB0EE30602E2FC0E32
:1024C000E306FD0EE350EE6EF1D71200000EF36E40
:1024D00000EE00F0030E01D81200EA6002D0EE6AAE
:1024E000FCD7F350E9601200EE6AFCD711EE00F061
:1024F00021EE00F0F86A179CA7EC1BF007EC0AF03D
:102500006CEC14F0FBD71200FFFFFFFFFFFFFFFF93
:00000001FF